{
  "_format": "hh-sol-artifact-1",
  "contractName": "NFT",
  "sourceName": "contracts/NFT.sol",
  "abi": [
    {
      "inputs": [
        {
          "internalType": "address",
          "name": "marketplaceAddress",
          "type": "address"
        }
      ],
      "stateMutability": "nonpayable",
      "type": "constructor"
    },
    {
      "anonymous": false,
      "inputs": [
        {
          "indexed": true,
          "internalType": "address",
          "name": "owner",
          "type": "address"
        },
        {
          "indexed": true,
          "internalType": "address",
          "name": "approved",
          "type": "address"
        },
        {
          "indexed": true,
          "internalType": "uint256",
          "name": "tokenId",
          "type": "uint256"
        }
      ],
      "name": "Approval",
      "type": "event"
    },
    {
      "anonymous": false,
      "inputs": [
        {
          "indexed": true,
          "internalType": "address",
          "name": "owner",
          "type": "address"
        },
        {
          "indexed": true,
          "internalType": "address",
          "name": "operator",
          "type": "address"
        },
        {
          "indexed": false,
          "internalType": "bool",
          "name": "approved",
          "type": "bool"
        }
      ],
      "name": "ApprovalForAll",
      "type": "event"
    },
    {
      "anonymous": false,
      "inputs": [
        {
          "indexed": true,
          "internalType": "address",
          "name": "from",
          "type": "address"
        },
        {
          "indexed": true,
          "internalType": "address",
          "name": "to",
          "type": "address"
        },
        {
          "indexed": true,
          "internalType": "uint256",
          "name": "tokenId",
          "type": "uint256"
        }
      ],
      "name": "Transfer",
      "type": "event"
    },
    {
      "inputs": [
        {
          "internalType": "address",
          "name": "to",
          "type": "address"
        },
        {
          "internalType": "uint256",
          "name": "tokenId",
          "type": "uint256"
        }
      ],
      "name": "approve",
      "outputs": [],
      "stateMutability": "nonpayable",
      "type": "function"
    },
    {
      "inputs": [
        {
          "internalType": "address",
          "name": "owner",
          "type": "address"
        }
      ],
      "name": "balanceOf",
      "outputs": [
        {
          "internalType": "uint256",
          "name": "",
          "type": "uint256"
        }
      ],
      "stateMutability": "view",
      "type": "function"
    },
    {
      "inputs": [
        {
          "internalType": "string",
          "name": "TokenURI",
          "type": "string"
        }
      ],
      "name": "createToken",
      "outputs": [
        {
          "internalType": "uint256",
          "name": "",
          "type": "uint256"
        }
      ],
      "stateMutability": "nonpayable",
      "type": "function"
    },
    {
      "inputs": [
        {
          "internalType": "uint256",
          "name": "tokenId",
          "type": "uint256"
        }
      ],
      "name": "getApproved",
      "outputs": [
        {
          "internalType": "address",
          "name": "",
          "type": "address"
        }
      ],
      "stateMutability": "view",
      "type": "function"
    },
    {
      "inputs": [],
      "name": "giveResaleApproval",
      "outputs": [],
      "stateMutability": "nonpayable",
      "type": "function"
    },
    {
      "inputs": [
        {
          "internalType": "address",
          "name": "owner",
          "type": "address"
        },
        {
          "internalType": "address",
          "name": "operator",
          "type": "address"
        }
      ],
      "name": "isApprovedForAll",
      "outputs": [
        {
          "internalType": "bool",
          "name": "",
          "type": "bool"
        }
      ],
      "stateMutability": "view",
      "type": "function"
    },
    {
      "inputs": [],
      "name": "name",
      "outputs": [
        {
          "internalType": "string",
          "name": "",
          "type": "string"
        }
      ],
      "stateMutability": "view",
      "type": "function"
    },
    {
      "inputs": [
        {
          "internalType": "uint256",
          "name": "tokenId",
          "type": "uint256"
        }
      ],
      "name": "ownerOf",
      "outputs": [
        {
          "internalType": "address",
          "name": "",
          "type": "address"
        }
      ],
      "stateMutability": "view",
      "type": "function"
    },
    {
      "inputs": [
        {
          "internalType": "address",
          "name": "from",
          "type": "address"
        },
        {
          "internalType": "address",
          "name": "to",
          "type": "address"
        },
        {
          "internalType": "uint256",
          "name": "tokenId",
          "type": "uint256"
        }
      ],
      "name": "safeTransferFrom",
      "outputs": [],
      "stateMutability": "nonpayable",
      "type": "function"
    },
    {
      "inputs": [
        {
          "internalType": "address",
          "name": "from",
          "type": "address"
        },
        {
          "internalType": "address",
          "name": "to",
          "type": "address"
        },
        {
          "internalType": "uint256",
          "name": "tokenId",
          "type": "uint256"
        },
        {
          "internalType": "bytes",
          "name": "data",
          "type": "bytes"
        }
      ],
      "name": "safeTransferFrom",
      "outputs": [],
      "stateMutability": "nonpayable",
      "type": "function"
    },
    {
      "inputs": [
        {
          "internalType": "address",
          "name": "operator",
          "type": "address"
        },
        {
          "internalType": "bool",
          "name": "approved",
          "type": "bool"
        }
      ],
      "name": "setApprovalForAll",
      "outputs": [],
      "stateMutability": "nonpayable",
      "type": "function"
    },
    {
      "inputs": [
        {
          "internalType": "bytes4",
          "name": "interfaceId",
          "type": "bytes4"
        }
      ],
      "name": "supportsInterface",
      "outputs": [
        {
          "internalType": "bool",
          "name": "",
          "type": "bool"
        }
      ],
      "stateMutability": "view",
      "type": "function"
    },
    {
      "inputs": [],
      "name": "symbol",
      "outputs": [
        {
          "internalType": "string",
          "name": "",
          "type": "string"
        }
      ],
      "stateMutability": "view",
      "type": "function"
    },
    {
      "inputs": [
        {
          "internalType": "uint256",
          "name": "tokenId",
          "type": "uint256"
        }
      ],
      "name": "tokenURI",
      "outputs": [
        {
          "internalType": "string",
          "name": "",
          "type": "string"
        }
      ],
      "stateMutability": "view",
      "type": "function"
    },
    {
      "inputs": [
        {
          "internalType": "address",
          "name": "from",
          "type": "address"
        },
        {
          "internalType": "address",
          "name": "to",
          "type": "address"
        },
        {
          "internalType": "uint256",
          "name": "tokenId",
          "type": "uint256"
        }
      ],
      "name": "transferFrom",
      "outputs": [],
      "stateMutability": "nonpayable",
      "type": "function"
    }
  ],
  "bytecode": "0x60806040523480156200001157600080fd5b50604051620018363803806200183683398101604081905262000034916200016e565b604080518082018252601081526f4d657461766572736520546f6b656e7360801b6020808301918252835180850190945260048452631351551560e21b9084015281519192916200008891600091620000c8565b5080516200009e906001906020840190620000c8565b5050600880546001600160a01b0319166001600160a01b03939093169290921790915550620001db565b828054620000d6906200019e565b90600052602060002090601f016020900481019282620000fa576000855562000145565b82601f106200011557805160ff191683800117855562000145565b8280016001018555821562000145579182015b828111156200014557825182559160200191906001019062000128565b506200015392915062000157565b5090565b5b8082111562000153576000815560010162000158565b60006020828403121562000180578081fd5b81516001600160a01b038116811462000197578182fd5b9392505050565b600181811c90821680620001b357607f821691505b60208210811415620001d557634e487b7160e01b600052602260045260246000fd5b50919050565b61164b80620001eb6000396000f3fe608060405234801561001057600080fd5b50600436106100f55760003560e01c80636352211e11610097578063b88d4fde11610066578063b88d4fde146101ff578063c87b56dd14610212578063e985e9c514610225578063ef8a95c01461026157600080fd5b80636352211e146101be57806370a08231146101d157806395d89b41146101e4578063a22cb465146101ec57600080fd5b8063095ea7b3116100d3578063095ea7b31461016257806323b872dd1461017757806342842e0e1461018a57806345576f941461019d57600080fd5b806301ffc9a7146100fa57806306fdde0314610122578063081812fc14610137575b600080fd5b61010d610108366004611303565b610269565b60405190151581526020015b60405180910390f35b61012a6102bb565b6040516101199190611431565b61014a610145366004611381565b61034d565b6040516001600160a01b039091168152602001610119565b6101756101703660046112da565b610374565b005b6101756101853660046111ec565b61048f565b6101756101983660046111ec565b6104c0565b6101b06101ab36600461133b565b6104db565b604051908152602001610119565b61014a6101cc366004611381565b6105ac565b6101b06101df3660046111a0565b61060c565b61012a610692565b6101756101fa3660046112a0565b6106a1565b61017561020d366004611227565b6106b0565b61012a610220366004611381565b6106e8565b61010d6102333660046111ba565b6001600160a01b03918216600090815260056020908152604080832093909416825291909152205460ff1690565b6101756107f9565b60006001600160e01b031982166380ac58cd60e01b148061029a57506001600160e01b03198216635b5e139f60e01b145b806102b557506301ffc9a760e01b6001600160e01b03198316145b92915050565b6060600080546102ca90611553565b80601f01602080910402602001604051908101604052809291908181526020018280546102f690611553565b80156103435780601f1061031857610100808354040283529160200191610343565b820191906000526020600020905b81548152906001019060200180831161032657829003601f168201915b5050505050905090565b600061035882610812565b506000908152600460205260409020546001600160a01b031690565b600061037f826105ac565b9050806001600160a01b0316836001600160a01b031614156103f25760405162461bcd60e51b815260206004820152602160248201527f4552433732313a20617070726f76616c20746f2063757272656e74206f776e656044820152603960f91b60648201526084015b60405180910390fd5b336001600160a01b038216148061040e575061040e8133610233565b6104805760405162461bcd60e51b815260206004820152603e60248201527f4552433732313a20617070726f76652063616c6c6572206973206e6f7420746f60448201527f6b656e206f776e6572206e6f7220617070726f76656420666f7220616c6c000060648201526084016103e9565b61048a8383610874565b505050565b61049933826108e2565b6104b55760405162461bcd60e51b81526004016103e990611496565b61048a838383610960565b61048a838383604051806020016040528060008152506106b0565b600073153ff7d5f5f21165750496826c0a8eb5d8a643bc33146105665760405162461bcd60e51b815260206004820152603a60248201527f5472616e73616374696f6e2052656a656374656421204163636f756e74204e6f60448201527f7420417574686f72697a656420746f20437265617465204e465400000000000060648201526084016103e9565b610574600780546001019055565b600061057f60075490565b905061058b3382610afc565b6105958184610c3e565b6008546102b5906001600160a01b031660016106a1565b6000818152600260205260408120546001600160a01b0316806102b55760405162461bcd60e51b8152602060048201526018602482015277115490cdcc8c4e881a5b9d985b1a59081d1bdad95b88125160421b60448201526064016103e9565b60006001600160a01b0382166106765760405162461bcd60e51b815260206004820152602960248201527f4552433732313a2061646472657373207a65726f206973206e6f7420612076616044820152683634b21037bbb732b960b91b60648201526084016103e9565b506001600160a01b031660009081526003602052604090205490565b6060600180546102ca90611553565b6106ac338383610cd8565b5050565b6106ba33836108e2565b6106d65760405162461bcd60e51b81526004016103e990611496565b6106e284848484610da7565b50505050565b60606106f382610812565b6000828152600660205260408120805461070c90611553565b80601f016020809104026020016040519081016040528092919081815260200182805461073890611553565b80156107855780601f1061075a57610100808354040283529160200191610785565b820191906000526020600020905b81548152906001019060200180831161076857829003601f168201915b5050505050905060006107a360408051602081019091526000815290565b90508051600014156107b6575092915050565b8151156107e85780826040516020016107d09291906113c5565b60405160208183030381529060405292505050919050565b6107f184610dda565b949350505050565b600854610810906001600160a01b031660016106a1565b565b6000818152600260205260409020546001600160a01b03166108715760405162461bcd60e51b8152602060048201526018602482015277115490cdcc8c4e881a5b9d985b1a59081d1bdad95b88125160421b60448201526064016103e9565b50565b600081815260046020526040902080546001600160a01b0319166001600160a01b03841690811790915581906108a9826105ac565b6001600160a01b03167f8c5be1e5ebec7d5bd14f71427d1e84f3dd0314c0f7b2291e5b200ac8c7c3b92560405160405180910390a45050565b6000806108ee836105ac565b9050806001600160a01b0316846001600160a01b0316148061093557506001600160a01b0380821660009081526005602090815260408083209388168352929052205460ff165b806107f15750836001600160a01b031661094e8461034d565b6001600160a01b031614949350505050565b826001600160a01b0316610973826105ac565b6001600160a01b0316146109d75760405162461bcd60e51b815260206004820152602560248201527f4552433732313a207472616e736665722066726f6d20696e636f72726563742060448201526437bbb732b960d91b60648201526084016103e9565b6001600160a01b038216610a395760405162461bcd60e51b8152602060048201526024808201527f4552433732313a207472616e7366657220746f20746865207a65726f206164646044820152637265737360e01b60648201526084016103e9565b610a44600082610874565b6001600160a01b0383166000908152600360205260408120805460019290610a6d908490611510565b90915550506001600160a01b0382166000908152600360205260408120805460019290610a9b9084906114e4565b909155505060008181526002602052604080822080546001600160a01b0319166001600160a01b0386811691821790925591518493918716917fddf252ad1be2c89b69c2b068fc378daa952ba7f163c4a11628f55a4df523b3ef91a4505050565b6001600160a01b038216610b525760405162461bcd60e51b815260206004820181905260248201527f4552433732313a206d696e7420746f20746865207a65726f206164647265737360448201526064016103e9565b6000818152600260205260409020546001600160a01b031615610bb75760405162461bcd60e51b815260206004820152601c60248201527f4552433732313a20746f6b656e20616c7265616479206d696e7465640000000060448201526064016103e9565b6001600160a01b0382166000908152600360205260408120805460019290610be09084906114e4565b909155505060008181526002602052604080822080546001600160a01b0319166001600160a01b03861690811790915590518392907fddf252ad1be2c89b69c2b068fc378daa952ba7f163c4a11628f55a4df523b3ef908290a45050565b6000828152600260205260409020546001600160a01b0316610cb95760405162461bcd60e51b815260206004820152602e60248201527f45524337323155524953746f726167653a2055524920736574206f66206e6f6e60448201526d32bc34b9ba32b73a103a37b5b2b760911b60648201526084016103e9565b6000828152600660209081526040909120825161048a92840190611075565b816001600160a01b0316836001600160a01b03161415610d3a5760405162461bcd60e51b815260206004820152601960248201527f4552433732313a20617070726f766520746f2063616c6c65720000000000000060448201526064016103e9565b6001600160a01b03838116600081815260056020908152604080832094871680845294825291829020805460ff191686151590811790915591519182527f17307eab39ab6107e8899845ad3d59bd9653f200f220920489ca2b5937696c31910160405180910390a3505050565b610db2848484610960565b610dbe84848484610e4e565b6106e25760405162461bcd60e51b81526004016103e990611444565b6060610de582610812565b6000610dfc60408051602081019091526000815290565b90506000815111610e1c5760405180602001604052806000815250610e47565b80610e2684610f5b565b604051602001610e379291906113c5565b6040516020818303038152906040525b9392505050565b60006001600160a01b0384163b15610f5057604051630a85bd0160e11b81526001600160a01b0385169063150b7a0290610e929033908990889088906004016113f4565b602060405180830381600087803b158015610eac57600080fd5b505af1925050508015610edc575060408051601f3d908101601f19168201909252610ed99181019061131f565b60015b610f36573d808015610f0a576040519150601f19603f3d011682016040523d82523d6000602084013e610f0f565b606091505b508051610f2e5760405162461bcd60e51b81526004016103e990611444565b805181602001fd5b6001600160e01b031916630a85bd0160e11b1490506107f1565b506001949350505050565b606081610f7f5750506040805180820190915260018152600360fc1b602082015290565b8160005b8115610fa95780610f938161158e565b9150610fa29050600a836114fc565b9150610f83565b60008167ffffffffffffffff811115610fd257634e487b7160e01b600052604160045260246000fd5b6040519080825280601f01601f191660200182016040528015610ffc576020820181803683370190505b5090505b84156107f157611011600183611510565b915061101e600a866115a9565b6110299060306114e4565b60f81b81838151811061104c57634e487b7160e01b600052603260045260246000fd5b60200101906001600160f81b031916908160001a90535061106e600a866114fc565b9450611000565b82805461108190611553565b90600052602060002090601f0160209004810192826110a357600085556110e9565b82601f106110bc57805160ff19168380011785556110e9565b828001600101855582156110e9579182015b828111156110e95782518255916020019190600101906110ce565b506110f59291506110f9565b5090565b5b808211156110f557600081556001016110fa565b600067ffffffffffffffff80841115611129576111296115e9565b604051601f8501601f19908116603f01168101908282118183101715611151576111516115e9565b8160405280935085815286868601111561116a57600080fd5b858560208301376000602087830101525050509392505050565b80356001600160a01b038116811461119b57600080fd5b919050565b6000602082840312156111b1578081fd5b610e4782611184565b600080604083850312156111cc578081fd5b6111d583611184565b91506111e360208401611184565b90509250929050565b600080600060608486031215611200578081fd5b61120984611184565b925061121760208501611184565b9150604084013590509250925092565b6000806000806080858703121561123c578081fd5b61124585611184565b935061125360208601611184565b925060408501359150606085013567ffffffffffffffff811115611275578182fd5b8501601f81018713611285578182fd5b6112948782356020840161110e565b91505092959194509250565b600080604083850312156112b2578182fd5b6112bb83611184565b9150602083013580151581146112cf578182fd5b809150509250929050565b600080604083850312156112ec578182fd5b6112f583611184565b946020939093013593505050565b600060208284031215611314578081fd5b8135610e47816115ff565b600060208284031215611330578081fd5b8151610e47816115ff565b60006020828403121561134c578081fd5b813567ffffffffffffffff811115611362578182fd5b8201601f81018413611372578182fd5b6107f18482356020840161110e565b600060208284031215611392578081fd5b5035919050565b600081518084526113b1816020860160208601611527565b601f01601f19169290920160200192915050565b600083516113d7818460208801611527565b8351908301906113eb818360208801611527565b01949350505050565b6001600160a01b038581168252841660208201526040810183905260806060820181905260009061142790830184611399565b9695505050505050565b602081526000610e476020830184611399565b60208082526032908201527f4552433732313a207472616e7366657220746f206e6f6e20455243373231526560408201527131b2b4bb32b91034b6b83632b6b2b73a32b960711b606082015260800190565b6020808252602e908201527f4552433732313a2063616c6c6572206973206e6f7420746f6b656e206f776e6560408201526d1c881b9bdc88185c1c1c9bdd995960921b606082015260800190565b600082198211156114f7576114f76115bd565b500190565b60008261150b5761150b6115d3565b500490565b600082821015611522576115226115bd565b500390565b60005b8381101561154257818101518382015260200161152a565b838111156106e25750506000910152565b600181811c9082168061156757607f821691505b6020821081141561158857634e487b7160e01b600052602260045260246000fd5b50919050565b60006000198214156115a2576115a26115bd565b5060010190565b6000826115b8576115b86115d3565b500690565b634e487b7160e01b600052601160045260246000fd5b634e487b7160e01b600052601260045260246000fd5b634e487b7160e01b600052604160045260246000fd5b6001600160e01b03198116811461087157600080fdfea26469706673582212206f4f9efcdac47d9fe2dc7969f3e168a7d5e5fb039600a8362ea6b9c8843e88d164736f6c63430008040033",
  "linkReferences": {},
  "deployedLinkReferences": {}
}