{
  "_format": "hh-sol-artifact-1",
  "contractName": "NFTMarket",
  "sourceName": "contracts/NFTMarket.sol",
  "abi": [
    {
      "inputs": [],
      "stateMutability": "nonpayable",
      "type": "constructor"
    },
    {
      "anonymous": false,
      "inputs": [
        {
          "indexed": true,
          "internalType": "uint256",
          "name": "itemId",
          "type": "uint256"
        },
        {
          "indexed": true,
          "internalType": "address",
          "name": "nftWarranty",
          "type": "address"
        },
        {
          "indexed": true,
          "internalType": "uint256",
          "name": "tokenId",
          "type": "uint256"
        },
        {
          "indexed": false,
          "internalType": "uint256",
          "name": "period",
          "type": "uint256"
        },
        {
          "indexed": false,
          "internalType": "uint256",
          "name": "pperiod",
          "type": "uint256"
        },
        {
          "indexed": false,
          "internalType": "uint256",
          "name": "pno",
          "type": "uint256"
        },
        {
          "indexed": false,
          "internalType": "address",
          "name": "seller",
          "type": "address"
        },
        {
          "indexed": false,
          "internalType": "address",
          "name": "owner",
          "type": "address"
        },
        {
          "indexed": false,
          "internalType": "uint256",
          "name": "claim",
          "type": "uint256"
        },
        {
          "indexed": false,
          "internalType": "bool",
          "name": "activated",
          "type": "bool"
        }
      ],
      "name": "WarrantyCreated",
      "type": "event"
    },
    {
      "inputs": [
        {
          "internalType": "uint256",
          "name": "prodno",
          "type": "uint256"
        }
      ],
      "name": "checkOwner",
      "outputs": [
        {
          "components": [
            {
              "internalType": "uint256",
              "name": "itemId",
              "type": "uint256"
            },
            {
              "internalType": "address",
              "name": "nftWarranty",
              "type": "address"
            },
            {
              "internalType": "uint256",
              "name": "tokenId",
              "type": "uint256"
            },
            {
              "internalType": "uint256",
              "name": "period",
              "type": "uint256"
            },
            {
              "internalType": "uint256",
              "name": "pperiod",
              "type": "uint256"
            },
            {
              "internalType": "uint256",
              "name": "pno",
              "type": "uint256"
            },
            {
              "internalType": "address payable",
              "name": "seller",
              "type": "address"
            },
            {
              "internalType": "address payable",
              "name": "owner",
              "type": "address"
            },
            {
              "internalType": "uint256",
              "name": "claim",
              "type": "uint256"
            },
            {
              "internalType": "bool",
              "name": "activated",
              "type": "bool"
            }
          ],
          "internalType": "struct NFTMarket.WarrantyItem[]",
          "name": "",
          "type": "tuple[]"
        }
      ],
      "stateMutability": "view",
      "type": "function"
    },
    {
      "inputs": [
        {
          "internalType": "address",
          "name": "nftWarranty",
          "type": "address"
        },
        {
          "internalType": "uint256",
          "name": "itemId",
          "type": "uint256"
        }
      ],
      "name": "claimWarranty",
      "outputs": [
        {
          "internalType": "bool",
          "name": "",
          "type": "bool"
        }
      ],
      "stateMutability": "nonpayable",
      "type": "function"
    },
    {
      "inputs": [
        {
          "internalType": "address",
          "name": "nftWarranty",
          "type": "address"
        },
        {
          "internalType": "uint256",
          "name": "itemId",
          "type": "uint256"
        }
      ],
      "name": "createMarketSale",
      "outputs": [],
      "stateMutability": "payable",
      "type": "function"
    },
    {
      "inputs": [
        {
          "internalType": "address",
          "name": "nftWarranty",
          "type": "address"
        },
        {
          "internalType": "uint256",
          "name": "tokenId",
          "type": "uint256"
        },
        {
          "internalType": "uint256",
          "name": "period",
          "type": "uint256"
        },
        {
          "internalType": "uint256",
          "name": "pno",
          "type": "uint256"
        }
      ],
      "name": "createWarrantyItem",
      "outputs": [],
      "stateMutability": "payable",
      "type": "function"
    },
    {
      "inputs": [],
      "name": "fetchActivatedWarranty",
      "outputs": [
        {
          "components": [
            {
              "internalType": "uint256",
              "name": "itemId",
              "type": "uint256"
            },
            {
              "internalType": "address",
              "name": "nftWarranty",
              "type": "address"
            },
            {
              "internalType": "uint256",
              "name": "tokenId",
              "type": "uint256"
            },
            {
              "internalType": "uint256",
              "name": "period",
              "type": "uint256"
            },
            {
              "internalType": "uint256",
              "name": "pperiod",
              "type": "uint256"
            },
            {
              "internalType": "uint256",
              "name": "pno",
              "type": "uint256"
            },
            {
              "internalType": "address payable",
              "name": "seller",
              "type": "address"
            },
            {
              "internalType": "address payable",
              "name": "owner",
              "type": "address"
            },
            {
              "internalType": "uint256",
              "name": "claim",
              "type": "uint256"
            },
            {
              "internalType": "bool",
              "name": "activated",
              "type": "bool"
            }
          ],
          "internalType": "struct NFTMarket.WarrantyItem[]",
          "name": "",
          "type": "tuple[]"
        }
      ],
      "stateMutability": "view",
      "type": "function"
    },
    {
      "inputs": [],
      "name": "fetchMyWarranty",
      "outputs": [
        {
          "components": [
            {
              "internalType": "uint256",
              "name": "itemId",
              "type": "uint256"
            },
            {
              "internalType": "address",
              "name": "nftWarranty",
              "type": "address"
            },
            {
              "internalType": "uint256",
              "name": "tokenId",
              "type": "uint256"
            },
            {
              "internalType": "uint256",
              "name": "period",
              "type": "uint256"
            },
            {
              "internalType": "uint256",
              "name": "pperiod",
              "type": "uint256"
            },
            {
              "internalType": "uint256",
              "name": "pno",
              "type": "uint256"
            },
            {
              "internalType": "address payable",
              "name": "seller",
              "type": "address"
            },
            {
              "internalType": "address payable",
              "name": "owner",
              "type": "address"
            },
            {
              "internalType": "uint256",
              "name": "claim",
              "type": "uint256"
            },
            {
              "internalType": "bool",
              "name": "activated",
              "type": "bool"
            }
          ],
          "internalType": "struct NFTMarket.WarrantyItem[]",
          "name": "",
          "type": "tuple[]"
        }
      ],
      "stateMutability": "view",
      "type": "function"
    },
    {
      "inputs": [],
      "name": "fetchWarranty",
      "outputs": [
        {
          "components": [
            {
              "internalType": "uint256",
              "name": "itemId",
              "type": "uint256"
            },
            {
              "internalType": "address",
              "name": "nftWarranty",
              "type": "address"
            },
            {
              "internalType": "uint256",
              "name": "tokenId",
              "type": "uint256"
            },
            {
              "internalType": "uint256",
              "name": "period",
              "type": "uint256"
            },
            {
              "internalType": "uint256",
              "name": "pperiod",
              "type": "uint256"
            },
            {
              "internalType": "uint256",
              "name": "pno",
              "type": "uint256"
            },
            {
              "internalType": "address payable",
              "name": "seller",
              "type": "address"
            },
            {
              "internalType": "address payable",
              "name": "owner",
              "type": "address"
            },
            {
              "internalType": "uint256",
              "name": "claim",
              "type": "uint256"
            },
            {
              "internalType": "bool",
              "name": "activated",
              "type": "bool"
            }
          ],
          "internalType": "struct NFTMarket.WarrantyItem[]",
          "name": "",
          "type": "tuple[]"
        }
      ],
      "stateMutability": "view",
      "type": "function"
    },
    {
      "inputs": [
        {
          "internalType": "address",
          "name": "nftWarranty",
          "type": "address"
        },
        {
          "internalType": "uint256",
          "name": "itemId",
          "type": "uint256"
        },
        {
          "internalType": "address",
          "name": "to",
          "type": "address"
        }
      ],
      "name": "transferWarranty",
      "outputs": [],
      "stateMutability": "payable",
      "type": "function"
    }
  ],
  "bytecode": "0x608060405234801561001057600080fd5b506001600055600380546001600160a01b03191633179055611358806100376000396000f3fe60806040526004361061007b5760003560e01c80639870dce01161004e5780639870dce0146100e8578063a62d741514610108578063c23b139e14610138578063c2adfcec1461014b57600080fd5b8063033a9d78146100805780633ab18372146100955780633c28f8bb146100c05780634294df71146100d3575b600080fd5b61009361008e366004611129565b610160565b005b3480156100a157600080fd5b506100aa610470565b6040516100b7919061119f565b60405180910390f35b6100936100ce3660046110e8565b61064c565b3480156100df57600080fd5b506100aa610722565b3480156100f457600080fd5b506100aa610103366004611163565b61093a565b34801561011457600080fd5b506101286101233660046110bd565b610b46565b60405190151581526020016100b7565b6100936101463660046110bd565b610c4a565b34801561015757600080fd5b506100aa610e15565b6002600054141561018c5760405162461bcd60e51b815260040161018390611254565b60405180910390fd5b600260005573153ff7d5f5f21165750496826c0a8eb5d8a643bc331461021a5760405162461bcd60e51b815260206004820152603a60248201527f5472616e73616374696f6e2052656a656374656421204163636f756e74204e6f60448201527f7420417574686f72697a656420746f20437265617465204e46540000000000006064820152608401610183565b610228600180546001019055565b600061023360015490565b9050604051806101400160405280828152602001866001600160a01b0316815260200185815260200184815260200160008152602001838152602001336001600160a01b0316815260200160006001600160a01b031681526020016000815260200160001515815250600460008381526020019081526020016000206000820151816000015560208201518160010160006101000a8154816001600160a01b0302191690836001600160a01b0316021790555060408201518160020155606082015181600301556080820151816004015560a0820151816005015560c08201518160060160006101000a8154816001600160a01b0302191690836001600160a01b0316021790555060e08201518160070160006101000a8154816001600160a01b0302191690836001600160a01b0316021790555061010082015181600801556101208201518160090160006101000a81548160ff021916908315150217905550905050846001600160a01b03166323b872dd3330876040518463ffffffff1660e01b81526004016103c79392919061117b565b600060405180830381600087803b1580156103e157600080fd5b505af11580156103f5573d6000803e3d6000fd5b5050604080518681526000602082018190528183018790523360608301526080820181905260a0820181905260c082015290518793506001600160a01b038916925084917f3660831f78ffdcbb0bf66b121a8565466b5620eb56ec227e89bf780f4a341365919081900360e00190a450506001600055505050565b6060600061047d60015490565b9050600061048a60025490565b60015461049791906112c2565b90506000808267ffffffffffffffff8111156104c357634e487b7160e01b600052604160045260246000fd5b6040519080825280602002602001820160405280156104fc57816020015b6104e961102a565b8152602001906001900390816104e15790505b50905060005b8481101561064357600060048161051a84600161128b565b81526020810191909152604001600020600701546001600160a01b0316141561063157600060048161054d84600161128b565b815260208082019290925260409081016000908120548082526004808552918390208351610140810185528154815260018201546001600160a01b039081169682019690965260028201549481019490945260038101546060850152918201546080840152600582015460a08401526006820154841660c0840152600782015490931660e08301526008810154610100830152600981015460ff16151561012083015285519293509185908790811061061657634e487b7160e01b600052603260045260246000fd5b602090810291909101015261062c60018661128b565b945050505b8061063b816112d9565b915050610502565b50949350505050565b6002600054141561066f5760405162461bcd60e51b815260040161018390611254565b60026000818155838152600460208190526040918290209092015490516323b872dd60e01b815290916001600160a01b038616916323b872dd916106b9913391879187910161117b565b600060405180830381600087803b1580156106d357600080fd5b505af11580156106e7573d6000803e3d6000fd5b5050506000938452505060046020526040822060070180546001600160a01b0319166001600160a01b03929092169190911790556001905550565b6060600061072f60015490565b905060008060005b8381101561079057336004600061074f84600161128b565b81526020810191909152604001600020600701546001600160a01b031614156107805761077d60018461128b565b92505b610789816112d9565b9050610737565b5060008267ffffffffffffffff8111156107ba57634e487b7160e01b600052604160045260246000fd5b6040519080825280602002602001820160405280156107f357816020015b6107e061102a565b8152602001906001900390816107d85790505b50905060005b8481101561064357336004600061081184600161128b565b81526020810191909152604001600020600701546001600160a01b0316141561092857600060048161084484600161128b565b815260208082019290925260409081016000908120548082526004808552918390208351610140810185528154815260018201546001600160a01b039081169682019690965260028201549481019490945260038101546060850152918201546080840152600582015460a08401526006820154841660c0840152600782015490931660e08301526008810154610100830152600981015460ff16151561012083015285519293509185908790811061090d57634e487b7160e01b600052603260045260246000fd5b602090810291909101015261092360018661128b565b945050505b80610932816112d9565b9150506107f9565b6060600061094760015490565b905060008060005b8381101561099d57856004600061096784600161128b565b815260200190815260200160002060050154141561098d5761098a60018461128b565b92505b610996816112d9565b905061094f565b5060008267ffffffffffffffff8111156109c757634e487b7160e01b600052604160045260246000fd5b604051908082528060200260200182016040528015610a0057816020015b6109ed61102a565b8152602001906001900390816109e55790505b50905060005b84811015610b3c578660046000610a1e84600161128b565b8152602001908152602001600020600501541415610b2a576000600481610a4684600161128b565b815260208082019290925260409081016000908120548082526004808552918390208351610140810185528154815260018201546001600160a01b039081169682019690965260028201549481019490945260038101546060850152918201546080840152600582015460a08401526006820154841660c0840152600782015490931660e08301526008810154610100830152600981015460ff161515610120830152855192935091859087908110610b0f57634e487b7160e01b600052603260045260246000fd5b6020908102919091010152610b2560018661128b565b945050505b80610b34816112d9565b915050610a06565b5095945050505050565b60008181526004602052604081206003015461dead90421115610c12576000838152600460208190526040918290206002015491516323b872dd60e01b81526001600160a01b038716916323b872dd91610ba6913391879187910161117b565b600060405180830381600087803b158015610bc057600080fd5b505af1158015610bd4573d6000803e3d6000fd5b505050600085815260046020526040812060070180546001600160a01b0319166001600160a01b03959095169490941790935550909150610c449050565b6000838152600460205260408120600801805460019290610c3490849061128b565b9091555060019250610c44915050565b92915050565b60026000541415610c6d5760405162461bcd60e51b815260040161018390611254565b60026000818155828152600460208190526040918290209092015490516331a9108f60e11b8152918201819052906001600160a01b038416906323b872dd908290636352211e9060240160206040518083038186803b158015610ccf57600080fd5b505afa158015610ce3573d6000803e3d6000fd5b505050506040513d601f19601f82011682018060405250810190610d07919061109a565b33846040518463ffffffff1660e01b8152600401610d279392919061117b565b600060405180830381600087803b158015610d4157600080fd5b505af1158015610d55573d6000803e3d6000fd5b50505060008381526004602052604090206007810180546001600160a01b0319163317905560030154610d8c915062278d006112a3565b600083815260046020819052604090912060038101929092550154610db290429061128b565b60008381526004602081905260409091209081019190915560030154610dd990429061128b565b60008381526004602052604090206003810191909155600901805460ff19166001179055610e0b600280546001019055565b5050600160005550565b60606000610e2260015490565b905060008060005b83811015610e83573360046000610e4284600161128b565b81526020810191909152604001600020600601546001600160a01b03161415610e7357610e7060018461128b565b92505b610e7c816112d9565b9050610e2a565b5060008267ffffffffffffffff811115610ead57634e487b7160e01b600052604160045260246000fd5b604051908082528060200260200182016040528015610ee657816020015b610ed361102a565b815260200190600190039081610ecb5790505b50905060005b848110156106435760046000610f0383600161128b565b815260208101919091526040016000206009015460ff16151560011415611018576000600481610f3484600161128b565b815260208082019290925260409081016000908120548082526004808552918390208351610140810185528154815260018201546001600160a01b039081169682019690965260028201549481019490945260038101546060850152918201546080840152600582015460a08401526006820154841660c0840152600782015490931660e08301526008810154610100830152600981015460ff161515610120830152855192935091859087908110610ffd57634e487b7160e01b600052603260045260246000fd5b602090810291909101015261101360018661128b565b945050505b80611022816112d9565b915050610eec565b6040518061014001604052806000815260200160006001600160a01b031681526020016000815260200160008152602001600081526020016000815260200160006001600160a01b0316815260200160006001600160a01b03168152602001600081526020016000151581525090565b6000602082840312156110ab578081fd5b81516110b68161130a565b9392505050565b600080604083850312156110cf578081fd5b82356110da8161130a565b946020939093013593505050565b6000806000606084860312156110fc578081fd5b83356111078161130a565b925060208401359150604084013561111e8161130a565b809150509250925092565b6000806000806080858703121561113e578081fd5b84356111498161130a565b966020860135965060408601359560600135945092505050565b600060208284031215611174578081fd5b5035919050565b6001600160a01b039384168152919092166020820152604081019190915260600190565b602080825282518282018190526000919060409081850190868401855b8281101561124757815180518552868101516001600160a01b03908116888701528682015187870152606080830151908701526080808301519087015260a0808301519087015260c08083015182169087015260e0808301519091169086015261010080820151908601526101209081015115159085015261014090930192908501906001016111bc565b5091979650505050505050565b6020808252601f908201527f5265656e7472616e637947756172643a207265656e7472616e742063616c6c00604082015260600190565b6000821982111561129e5761129e6112f4565b500190565b60008160001904831182151516156112bd576112bd6112f4565b500290565b6000828210156112d4576112d46112f4565b500390565b60006000198214156112ed576112ed6112f4565b5060010190565b634e487b7160e01b600052601160045260246000fd5b6001600160a01b038116811461131f57600080fd5b5056fea2646970667358221220670f5d9516aab207776967ebf762c682e8574df69dd60d622da67410e8f57e6e64736f6c63430008040033",
  "linkReferences": {},
  "deployedLinkReferences": {}
}